:020000040000FA
:1000000021EF02F01201000202000008D8040A00E9
:1000100001000102000109024300020100803209CF
:100020000400000102020100052400100104240262
:1000300002052406000105240100010705820308CA
:10004000000209040100020A00000007050302087B
:1000500000000705830208000000040309043603BA
:100060004D006900630072006F0063006800690062
:100070007000200054006500630068006E006F008F
:100080006C006F00670079002C00200049006E00B2
:1000900063002E001E034A0041004C004C00490042
:1000A00042002000530065007200690061006C008E
:1000B0002E005553422D493243204D6173746572B1
:1000C0002076302E3031620D0A0020556E6B6E6F37
:1000D000776E20636F6D6D616E640D0A20457865E3
:1000E000637574652000524541442041302062759B
:1000F000730A207363616E6E696E67205363616E6D
:100100006E696E6720693263206275730D0A207311
:1001100063616E6E696E67205363616E6E696E67B0
:1001200020693263206275730D0A207772697465E5
:100130002072656164006E6F206465766963652076
:10014000666F756E640D0A00537570706F7274651A
:100150006420636F6D616D6E64730D0A3D3D3D3DBE
:100160003D3D3D3D3D3D3D3D3D3D3D3D3D3D3D3DBF
:100170003D3D3D3D3D3D3D3D3D3D3D3D3D3D3D3DAF
:100180003D3D3D3D3D3D3D3D3D3D3D3D3D3D3D3D9F
:100190003D3D3D3D3D3D3D3D3D3D3D3D3D3D3D3D8F
:1001A0003D3D3D3D3D3D3D3D3D0D0A0062414174BB
:1001B000305242202020202020203A2072656365A2
:1001C0006976655F62797465616464723B20493267
:1001D0004320616464726573732041412C20736510
:1001E0006E642074302C20726563656976652052D8
:1001F000422062797465730D0A007741417430744E
:1002000031524220202020203A20726563656976B1
:10021000655F776F7264616464723B20493243208A
:10022000616464726573732041412C2073656E6450
:1002300020743020262074312C2072656365697625
:10024000652052422062797465730D0A78414154E9
:1002500042746F2E2E746E5242203A2073656E6483
:1002600020726563656976653B204932432061648D
:1002700064726573732041412C2073656E64205451
:10028000422062797465732C206461746120287443
:10029000302E2E746E292C20726563656976652078
:1002A00052422062797465730D0A73203A20627598
:1002B00073207363616E0D0A74203A206565707255
:1002C0006F6D207465737420726F7574696E65202C
:1002D00028726561642066697273742033206279C4
:1002E0007465732C20696E6372656D656E7420335E
:1002F00072642062797465206279206F6E650D0AE0
:100300003F203A2073686F772075736167652069B5
:100310006E666F726D6174696F6E0D0A4578616DFE
:10032000706C65733A0D0A0062413046462E2073A8
:10033000656E64206F6E652062797465202846467C
:100340002920746F2049324320616464726573739D
:100350002041302C206E6F206279746573207265A5
:100360006365697665640D0A774136303030313027
:10037000382E2073656E6420776F72642061646428
:10038000726573732028303030312920746F204912
:10039000324320616464726573732041362C20728D
:1003A0006563656976652030382062797465730D00
:1003B0000A00784134303442414245464143453099
:1003C000412E2073656E6420342062797465732039
:1003D0002842414245464143452920746F20493215
:1003E0004320616464726573732041342C2072650C
:1003F00063656976652031302062797465730D0A12
:100400005452554546414C5345000FBE1BEF02F078
:100410000FBC11EF02F00E50EA6E0D50E96EEF5076
:1004200012000D50F66E0E50F76E0F503F0BF86E27
:100430000800F55012001200FB6E0E50FA6E0D50BF
:10044000F96E56EF02F07751796F78517A6F7B6BC6
:100450007C6B3AEF02F00001FF0E096E0E0E0A6E81
:100460000A2E30EF02F0092E2EEF02F001017B2B55
:10047000D8B47C2B7B51795D096E7C517A5D091073
:10048000D8A42BEF02F01200B886AC84670EAF6ED2
:10049000B06A1200AC6AAB6A44EC02F09D9A9D9877
:1004A000938A938EAC8AAB8EAB8812000001DD91EB
:1004B00021EF03F00D0E096E74510D6E75510E6E25
:1004C00076511CEC02F00A0E096E010174510D6E9A
:1004D00075510E6E76511CEF02F06A516F6F6B51C1
:1004E000706F6F51726F7051736F716B90EF02F09C
:1004F0006C517125F66E000E0A6E6D510A20F76E72
:100500006E510A20F86EF89C0900F550096E67518B
:100510000D6E68510E6E69511CEC02F00101712BD9
:100520007151725D096E73510910D8A478EF02F011
:10053000120066A1AEEF02F06351676F6451686FFD
:100540006551696F040E6A6F6B6B000E6C6F040E61
:100550006D6F000E40096E6F6DEF02F06351676FB3
:100560006451686F6551696F050E6A6F6B6B040E9D
:100570006C6F040E6D6F000E40096E6F6DEF02F030
:1005800001015B6F0001DDA1DAEF02F0300E096EB0
:10059000010158510D6E59510E6E5A511CEC02F06A
:1005A000780E096E010158510D6E59510E6E5A5157
:1005B0001CEC02F001015B390F0B5C6F0F0E5C1538
:1005C000096EF00E5D1509105D6F0F0E5D155E6F03
:1005D000300E5E25606F390E605DD8B4F5EF02F025
:1005E000D8A0F5EF02F0070E602760515C6F096E2E
:1005F00058510D6E59510E6E5A511CEC02F00F0EEF
:1006000001015B15096EF00E5D1509105D6F0F0E8F
:100610005D15616F300E6125626F390E625DD8B471
:1006200017EF03F0D8A017EF03F0070E622762510F
:100630005C6F096E58510D6E59510E6E5A511CEF78
:1006400002F04AEC02F0BAEF03F0446E3F50E16E64
:100650004050E26E4450466E456A3EEF03F0415012
:1006600045240D6E000E096E425009200E6E435057
:1006700009200F6E05EC02F0E66E452A4550465CF7
:10068000D8A42FEF03F0120004BF12004E504B5CB1
:10069000D8B450EF03F0D8B050EF03F04B504E6E8B
:1006A000D8804E504C543D6E4D5CD8B45DEF03F095
:1006B000D8B05DEF03F04D503D6E780E4C24066FC0
:1006C000000E096E020E0920076F3D50056F04AD44
:1006D0006EEF03F0880E046F70EF03F0C80E046F26
:1006E0003D504C264C504E5C1200080E4D6E4C6A2C
:1006F0004E6A4B6A049D44EF03F04A6E786F080E11
:100700004D6E4C6A010E4E6E010E4B6E049D44EF11
:1007100003F0840E020100131200080E0201016FA3
:10072000200E026F020E036F030E505CD8A49EEFE2
:1007300003F08C0E3C6E046BA0EF03F0C80E3C6E11
:100740003C50006F12002C6ED8902C342F6ED89035
:100750002F36D8902F362F282E6E02EE00F02E5016
:10076000E9262D50EF6E02EE00F02F50E926800EA4
:10077000EF6E1200526A0001DD93176A186A196A57
:100780001A6A100E1B6E8CEF07F0F9513E6E210EA7
:100790003E5CD8A4CEEF03F0050E506E12002A90F6
:1007A00002011CBF2A802AB012001750185CD8A47E
:1007B000E0EF03F00001DDA31200256AF2EF03F081
:1007C0001750185CD8B4EEEF03F0D8B0EEEF03F09A
:1007D000D88017501854256EF2EF03F0D880200E01
:1007E0001854256E080E255CD8B4FCEF03F0D8A091
:1007F000FCEF03F0080E256E2550286E276A11EFD6
:1008000004F018502724266E00EE53F02650E926F7
:10081000EF50096E02EE58F02750E9260950EF6EAE
:10082000272A2750285CD8A401EF04F0580E0201B3
:100830001E6F020E1F6F25501D6F1CAD24EF04F0BC
:10084000880E1C6F26EF04F0C80E1C6F185025246C
:10085000296E1F0E295CD8B432EF04F0D8A032EF15
:1008600004F0296A2950186E080E255C0001DD93FA
:10087000D8B4DD831200236E1728246E200E245C6A
:10088000D8B4246A00EE53F01750E9262350EF6ED7
:100890002450176E120000EE73F01A50E926EF5044
:1008A000566F1B2A1A28576F100E575DD8B4576B16
:1008B00057511A6E565112001A50195C5591D8A40E
:1008C0005581099055B109801200CFEC03F0080E54
:1008D0001B5CD8B46FEF04F0D8A078EF04F00201ED
:1008E00018BF78EF04F0080E2D6E030EA3EF03F08F
:1008F0001200106AC20E116E010E126E136A146A93
:10090000080E166E156A1200F951476E060E475C06
:10091000D8A41CEF05F0FB51486EFA51496E4E6A9F
:100920004804D8A4A6EF04F0120E4E6E780E3F6E67
:10093000020E406E040E416E000E426E000E400923
:10094000436E4E5025EC03F003EF05F0020E485CB9
:10095000D8A4BDEF04F0430E4E6E780E3F6E020E2B
:10096000406E160E416E000E426E000E4009436E40
:100970004E5025EC03F003EF05F0030E485CD8A4BD
:1009800001EF05F04950D8A4D6EF04F0040E4E6EE6
:10099000780E3F6E020E406E5A0E416E000E426E91
:1009A000000E4009436E4E5025EC03F04904D8A4D4
:1009B000EAEF04F0360E4E6E780E3F6E020E406E79
:1009C0005E0E416E000E426E000E4009436E4E50A8
:1009D00025EC03F0020E495CD8A403EF05F01E0ECF
:1009E0004E6E780E3F6E020E406E940E416E000EFB
:1009F000426E000E4009436E4E5025EC03F003EFAB
:100A000005F0220E485C4E50D8B41AEF05F0080EDF
:100A10004D6E0201FF51D8A412EF05F0FE514B6E4E
:100A200014EF05F0FF0E4B6E030E506E4C6A049DE2
:100A300044EF03F089EF03F0050E475CD8A42AEFDA
:100A400005F0FA51516E010E4F6E75EC03F0060E73
:100A5000506E1200090E475CD8A464EF05F0060E34
:100A6000506E75EC03F00F015489548554835487FC
:100A7000400E02010C6F080E096F300E0A6F020E55
:100A80000B6F800E086F0F0155895585558355876B
:100A9000400E0201146F080E116F400E126F020E0D
:100AA000136F800E106F0F01568956855683568737
:100AB000400E02011C6F080E196F500E1A6F020EC5
:100AC0001B6F800E186F12000A0E475CD8A46EEFE1
:100AD00005F0030E506E010E7DEF03F04750D8A4D1
:100AE00075EF05F0000E7DEF03F01200D890633033
:100AF000306ED8903032D890303263A48BEF05F04E
:100B0000D89002010431326ED89032320F0E321476
:100B1000316E94EF05F0D89002010031326ED8901A
:100B200032320F0E3214316E3050D8A478EF06F006
:100B30000D0E315CD8A403EF06F0336A02EE20F00C
:100B40003350E926EF50096E02EEF8F03350E926F3
:100B50000950EF6E332A080E335CD8A49EEF05F0DF
:100B600064988DEC03F0300E0201F815326E3250AD
:100B7000D8B484EF04F0200E325CD8A4FDEF05F069
:100B8000F951346E230E345CD8A4CBEF05F0060E79
:100B9000506E75EF03F0200E345CD8A4D3EF05F04F
:100BA000020E506E1200210E345CD8A4F0EF05F056
:100BB000FF0E4B6E070E4E6E780E3F6E020E406EAD
:100BC000100E416E426A436A4E5025EC03F0080E47
:100BD0004D6E030E506E4C6A0201049D44EF03F00B
:100BE000220E345CD8A4FCEF05F0060E506E75ECB6
:100BF00003F00201FA51526E1200400E325CD8A48A
:100C0000F3EF06F01200090E315CD8A426EF06F0CF
:100C1000030E505CD8B444EF03F0060E505CD8A429
:100C20001CEF06F0506A4F04D8A4F3EF06F05150C1
:100C30000F015C6F4F6A1200050E505CD8B41200B1
:100C4000040E505CD8B4C5EF03F01200020E315C04
:100C5000D8A43CEF06F0030E505CD8B444EF03F088
:100C6000040E505CD8B4C5EF03F0060E505CD8A457
:100C7000F3EF06F0506A12003104D8A4F3EF06F047
:100C8000050E505CD8A448EF06F0506A8DEF03F0D3
:100C9000020E505CD8A46DEF06F0F951336E200EB1
:100CA000335CD8A46BEF06F0346A02EE20F03450C7
:100CB000E926EF50096E00EE10F03450E926095095
:100CC000EF6E342A070E345CD8A455EF06F0060EFA
:100CD000506E75EC03F08DEF03F0030E505CD8A45A
:100CE00076EF06F08DEC03F0506A12008DEF03F002
:100CF00063A49FEF06F0D8903034336ED89033362B
:100D0000D8903336040E33263328326E020E332445
:100D1000326E02EE00F03250E926EF50346E030ED0
:100D20003324326E02EE00F03250E926EF50356E79
:100D3000030E305CD8A4F3EF06F0CFEF03F0D890A9
:100D40003034336ED8903336D89033363328326E01
:100D500002EE00F03250E926EF50346E02EE00F061
:100D60003350E926EF50356E35BEF3EF06F0020E34
:100D70003324326E02EE00F03250E926EF50366E28
:100D8000030E3324326E02EE00F03250E926EF50AB
:100D9000376E030E305CD8A4F3EF06F03650E16EE8
:100DA0003750E26E3450396E3A6AEEEF06F0192889
:100DB000386E100E385CD8B4386A38501A5CD8B423
:100DC000EDEF06F0E6503B6E00EE73F01950E926A9
:100DD0003B50EF6E3850196E1B063A2A3A50395C78
:100DE000D8A4D7EF06F01200A1A43DEF07F0A1941C
:100DF0002B6A62A6FFEF06F076EC05F062962B2ACE
:100E0000040E2B5CD8A4F9EF06F062A02FEF07F0D8
:100E10000F015F6B626A516A546B556B566B576B6F
:100E2000586B596B5A6B160E536F62A61BEF07F087
:100E3000629615EF07F0506A4F6A6498080E020137
:100E4000056F280E066F020E076F046B080E016F08
:100E5000200E026F020E036F8C0E006F629062BA5A
:100E6000629A62B8629862AC39EF07F065EC04F000
:100E7000629C62A23DEF07F062921200F4EC06F071
:100E8000CFEF03F0646A140E616E6B0E606EA09477
:100E900079EC04F0626A646A64861200206E525033
:100EA000216E2150D8B412001728226E200E225C29
:100EB000D8B4226A2250185CD8A463EF07F03EEC45
:100EC00007F05AEF07F020503BEF04F052500101B9
:100ED000536F5351D8A470EF07F0099081EF07F0DA
:100EE0005CEC04F00101549309B0548354B37CEFDB
:100EF00007F0099081EF07F04BEC04F00101526F0D
:100F000009805251120066EC07F00101506F120087
:100F100009501F6E4EEF07F0010E836F846BF0EFE8
:100F200007F0938C9388280EC66E200EC56E0A0EAD
:100F3000835D8411D8A4A1EF07F00B0EC86EBFEF3C
:100F400007F0040E835D8411D8A4ABEF07F01D0EEB
:100F5000C86EBFEF07F083058411D8A4B4EF07F083
:100F6000770EC86EBFEF07F083518411D8A4BDEF90
:100F700007F07F0EC86EBFEF07F0770EC86EC76A26
:100F80001200C580C5B0C2EF07F01200C582C5B21D
:100F9000C7EF07F01200C584C5B4CCEF07F012000C
:100FA00001014F6F9E964F51C96E9EA6D5EF07F077
:100FB000C5BCDDEF07F009801200C69AC68A099009
:100FC0001200C586C7A0E2EF07F04EB1C59A4EA148
:100FD000C58AC588C5B8EAEF07F0C9504D6F120041
:100FE00091EC07F09CEF08F00101436F48814451F8
:100FF0004883D8A4489345514885D8A44895488744
:1010000048B348A5489748A708EF08F00990120090
:10101000C1EC07F001014451D8B444EF08F0FE0ED2
:101020004315476FD0EC07F00101489109B04881A2
:1010300048B11FEF08F0CBEC07F0099012004451C3
:101040004B6F466B39EF08F000EE85F04651E9260C
:10105000EF50D0EC07F00101489F09B0488F48AF2E
:10106000489148B138EF08F0CBEC07F00990120036
:10107000462B46514B5DD8A424EF08F04551D8B417
:1010800044EF08F0C6EC07F001014551D8B486EFF3
:1010900008F0010E4311476FD0EC07F00101499BA6
:1010A00009B0498B49AB489148B15BEF08F0CBECF4
:1010B00007F009901200010E455DD8B479EF08F0F1
:1010C000D8A079EF08F045054C6F466B74EF08F037
:1010D0004E81E1EC07F00C6E00EE85F00101465107
:1010E000E9260C50EF6E462B46514C5DD8A468EFB4
:1010F00008F04505476F4E91E1EC07F00C6E00EEED
:1011000085F001014751E9260C50EF6ECBEC07F05A
:10111000098012000001FD6FFF51096E0A6A095033
:10112000856FFE51866F020E0101446F4051456F7D
:101130000001FD51F4EF07F0F2AEA2EF08F0F29ECD
:101140009CEF08F042EC07F00001DD851C6A1D6A87
:1011500081EF0BF0100E0101676F0F0E686F000E2C
:10116000696F140E6A6F6B6B480E6C6F010E6D6FBA
:10117000000E40096E6F6DEC02F0100E0101676FFA
:101180000F0E686F000E696F4F0E6A6F6B6B5C0E0F
:101190006C6F010E6D6F000E40096E6F6DEC02F00A
:1011A000100E0101676F0F0E686F000E696F4D0E14
:1011B0006A6F6B6BAC0E6C6F010E6D6F000E4009A9
:1011C0006E6F6DEC02F0100E0101676F0F0E686F0D
:1011D000000E696F520E6A6F6B6BFA0E6C6F010E28
:1011E0006D6F000E40096E6F6DEC02F0100E010184
:1011F000676F0F0E686F000E696F5E0E6A6F6B6B24
:101200004C0E6C6F020E6D6F000E40096E6F6DEC30
:1012100002F0100E0101676F0F0E686F000E696F0C
:101220000E0E6A6F6B6BAA0E6C6F020E6D6F000E66
:1012300040096E6F6DEC02F0100E0101676F0F0E2A
:10124000686F000E696F480E6A6F6B6BB80E6C6F3B
:10125000020E6D6F000E40096E6F6DEC02F0100E05
:101260000101676F0F0E686F000E696F1C0E6A6FC9
:101270006B6B000E6C6F030E6D6F000E40096E6F8E
:101280006DEC02F0100E0101676F0F0E686F000E1B
:10129000696F0B0E6A6F6B6B1C0E6C6F030E6D6FBC
:1012A000000E40096E6F6DEC02F0100E0101676FC9
:1012B0000F0E686F000E696F400E6A6F6B6B280E21
:1012C0006C6F030E6D6F000E40096E6F6DEC02F0D7
:1012D000100E0101676F0F0E686F000E696F490EE7
:1012E0006A6F6B6B680E6C6F030E6D6F000E4009BA
:1012F0006E6F6DEC02F0100E0101676F0F0E686FDC
:10130000000E696F4E0E6A6F6B6BB20E6C6F030E40
:101310006D6F000E40096E6F6DEF02F0F991100EC7
:101320000101676F0F0E686F000E696F120E6A6F12
:101330006B6B180E6C6F010E6D6F000E40096E6FB7
:101340006DEC02F00001F76BD890F735FA6F0101F0
:10135000446B456B0001FA51F4EC07F0010E0914DF
:101360000001FC6FFA2B0101446B456B0001FA513F
:10137000F4EC07F0010E09140001FB6FFC51FB11A6
:10138000F86FF805D8A40DEF0AF0F981D890F73579
:10139000F86F100E0101586F0F0E596F000E5A6F43
:1013A0000001F851C0EC02F00001FB05D8A4ECEFFD
:1013B00009F0100E0101676F0F0E686F000E696F64
:1013C000060E6A6F6B6B2A0E6C6F010E6D6F000E4E
:1013D00040096E6F6DEC02F00001FB05D8A404EF2C
:1013E0000AF0100E0101676F0F0E686F000E696F33
:1013F000050E6A6F6B6B300E6C6F010E6D6F000E19
:1014000040096E6F6DEC02F0100E0101746F0F0E4B
:10141000756F000E766F5AEC02F00001F72B7F0E0D
:10142000F75DD8A4A4EF09F0F9B12AEF0AF0100E85
:101430000101676F0F0E686F000E696F110E6A6F02
:101440006B6B360E6C6F010E6D6F000E40096E6F88
:101450006DEF02F01200100E0101676F0F0E686F42
:10146000000E696F120E6A6F6B6BFC0E6C6F000ED4
:101470006D6F000E40096E6F6DEC02F00001F46BB1
:101480000A0EF425F56F100E0101676F0F0E686FDD
:10149000000E696F0A0E6A6F6B6B0E0E6C6F010E99
:1014A0006D6F000E40096E6F6DEC02F0100E0101C1
:1014B000586F0F0E596F000E5A6F0001F551C0ECB6
:1014C00002F03EEC07F00101446B456B0001F55161
:1014D000F4EC07F0010E09140001F66F200E096EFE
:1014E00088EC07F0100E0101636F0F0E646F000EA1
:1014F000656F0001F651D8B482EF0AF001016681F0
:1015000084EF0AF00101669199EC02F0100E0101DE
:10151000746F0F0E756F000E766F5AEC02F03EEC92
:1015200007F00A0E0101776F786B23EC02F00001DF
:10153000F42BE60EF45DD8A440EF0AF01200100E72
:101540000101676F0F0E686F000E696F0C0E6A6FF6
:101550006B6BE60E6C6F000E6D6F000E40096E6FC8
:101560006DEC02F0A00E0001F16FF3B1F12B100E43
:101570000101676F0F0E686F000E696F0A0E6A6FC8
:101580006B6BF20E6C6F000E6D6F000E40096E6F8C
:101590006DEC02F0100E0101586F0F0E596F000E26
:1015A0005A6F0001F151C0EC02F03EEC07F0C1ECC3
:1015B00007F00001F151D0EC07F0010E0914000111
:1015C000F26F010E0101776F786B23EC02F0CBEC28
:1015D00007F0100E0101636F0F0E646F000E656F50
:1015E0000001F251D8B4F9EF0AF001016681FBEF76
:1015F0000AF00101669199EC02F03EEF07F000015C
:10160000FE6BFF6B030E0101406FA00E8AEC08F029
:101610000001F09109B0F081100E0101636F0F0E0F
:10162000646F000E656F0001F0B11BEF0BF001015C
:1016300066911DEF0BF00101668199EC02F0200E1E
:10164000096E88EC07F0100E0101586F0F0E596FEC
:10165000000E5A6F00018551C0EC02F0200E096E99
:1016600088EC07F0100E0101586F0F0E596F000E35
:101670005A6F00018651C0EC02F0200E096E88EC12
:1016800007F0100E0101586F0F0E596F000E5A6FC0
:1016900000018751C0EC02F0200E096E88EC07F0C3
:1016A0000001856B020E866F8729876F030E01018B
:1016B000446F456BA00EF4EC07F00001F09109B007
:1016C000F081100E0101636F0F0E646F000E656FE5
:1016D0000001F0B170EF0BF00101669172EF0BF0B9
:1016E0000101668199EC02F0200E096E88EC07F08A
:1016F000100E0101746F0F0E756F000E766F5AEFAA
:1017000002F0D66BD76B3F0ED86F3AEF0DF0ED6F4E
:10171000FF0EEE6F300EED5DD8B492EF0BF0D8A057
:10172000CDEF0BF0390EED5DD8B49AEF0BF0D8B0D9
:101730009FEF0BF0D00EED25EE6FCDEF0BF0410ECD
:10174000ED5DD8B4A7EF0BF0D8A0CDEF0BF0460EAF
:10175000ED5DD8B4AFEF0BF0D8B0B7EF0BF0BF0E24
:10176000ED25EF6F0A0EEF25EE6FCDEF0BF0610E5A
:10177000ED5DD8B4BFEF0BF0D8A0CDEF0BF0660E47
:10178000ED5DD8B4C7EF0BF0D8B0CDEF0BF09F0EE6
:10179000ED25EF6F0A0EEF25EE6FEE5112003C0EB5
:1017A000096E88EC07F00001ECB1EEEF0BF04E0E85
:1017B000096E88EC07F04F0E096E88EC07F04B0EAF
:1017C000096E88EC07F0100E0101746F0F0E756F33
:1017D000000E766F5AEC02F0FEEF0BF04F0E096E22
:1017E00088EC07F04B0E096E88EC07F03E0E096E90
:1017F00088EC07F0200E096E88EC07F03F0E000120
:10180000D86FD66B1200100E0101676F0F0E686F54
:10181000000E696F090E6A6F6B6BDC0E6C6F000E49
:101820006D6F000E40096E6F6DEC02F00001D85133
:10183000096E88EC07F0200E096E88EC07F00001B5
:10184000D751E36FE26B3AEF0CF0100E0101586FC5
:101850000F0E596F000E5A6F01EE00F00001E251B9
:10186000E926EF50C0EC02F02C0E096E88EC07F070
:101870000001E22BE251E35DD8A425EF0CF0720EDB
:10188000D85DD8A4B7EF0CF0010102510001E56F5B
:10189000010101510001E66FE551FE6FE651FF6F56
:1018A00001010351406F00518AEC08F00001E491FE
:1018B00009B0E481400E096E88EC07F0100E0101BA
:1018C000586F0F0E596F000E5A6F0351C0EC02F0A3
:1018D000400E096E88EC07F0200E096E88EC07F0C8
:1018E000100E0101636F0F0E646F000E656F000133
:1018F000E4B17FEF0CF00101669181EF0CF0010182
:10190000668199EC02F03D0E096E88EC07F000014B
:10191000EC91E4B1EC81CFEC0BF00101035100013B
:10192000E76FE26BA9EF0CF0100E0101586F0F0E7C
:10193000596F000E5A6F00EE85F00001E251E92662
:10194000EF50C0EC02F0200E096E88EC07F00001A9
:10195000E22BE251E75DD8A494EF0CF0100E0101E8
:10196000746F0F0E756F000E766F5AEF02F0780EDF
:10197000D85DD8A437EF0DF0020EE86F01010151D8
:101980000001E96FE26BD3EF0CF001EE00F0E851DB
:10199000E926EF50096E00EE85F0E251E926095084
:1019A000EF6EE82BE22BE251E95DD8A4C5EF0CF015
:1019B00001EE00F0E851E926EF50EA6FE82B010153
:1019C0000151446F0001EA510101456F0051F4ECEF
:1019D00007F00001E49109B0E481200E096E88EC63
:1019E00007F0100E0101636F0F0E646F000E656F3C
:1019F0000001E4B100EF0DF00101669102EF0DF07E
:101A00000101668199EC02F03D0E096E88EC07F049
:101A10000001EC91E4B1EC81CFEC0BF00001EA5154
:101A2000EB6FE26B29EF0DF0100E0101586F0F0EF6
:101A3000596F000E5A6F00EE85F00001E251E92661
:101A4000EF50C0EC02F0200E096E88EC07F00001A8
:101A5000E22BE251EB5DD8A414EF0DF0100E010162
:101A6000746F0F0E756F000E766F5AEF02F0EC91E7
:101A7000CFEF0BF03EEC07F052500001DC6FDC5171
:101A8000D8B45CEF0DF0DDB55DEF0DF0DD85100E27
:101A90000101676F0F0E686F000E696F170E6A6F96
:101AA0006B6BB20E6C6F000E6D6F000E40096E6FA7
:101AB0006DEC02F05DEF0DF0DD9583EC07F00001B9
:101AC000D56FDD9B09B0DD8BDDAB3AEF0DF0D55165
:101AD000096E88EC07F00001D651D8A401EF0EF092
:101AE000550ED55DD8A47DEF0DF0210E096E88EC62
:101AF00007F0FFEC0AF03AEF0DF0740ED55DD8A4B4
:101B00008AEF0DF0210E096E88EC07F0FFEC0AF069
:101B10003AEF0DF0730ED55DD8A493EF0DF02BECDA
:101B20000AF03AEF0DF03F0ED55DD8A49CEF0DF012
:101B3000AAEC08F03AEF0DF0530ED55DD8A4A5EF4E
:101B40000DF08EEC09F03AEF0DF0750ED55DD8A4CE
:101B5000AEEF0DF0FFEC0AF03AEF0DF0610ED55D3F
:101B6000D8A4B8EF0DF0F3919FEC0AF03AEF0DF026
:101B7000620ED55DD8A4C2EF0DF0F3819FEC0AF0A0
:101B80003AEF0DF01B0ED55DD8B43AEF0DF00A0E0A
:101B9000D55DD8B4FFEF0DF00D0ED55DD8B43AEF9A
:101BA0000DF0720ED55DD8B4E0EF0DF0780ED55D76
:101BB000D8B4E0EF0DF0770ED55DD8A4E8EF0DF0C6
:101BC000DB6B010ED66FD76BD551D86F3AEF0DF0A6
:101BD000D551096E88EC07F0100E0101676F0F0EEA
:101BE000686F000E696F120E6A6F6B6BCA0E6C6FB6
:101BF000000E6D6F000E40096E6F6DEC02F03AEF53
:101C00000DF0D605D8A439EF0EF02E0ED55DDF9D70
:101C1000D8B4DF8D0A0ED55DDF9FD8B4DF8FE09199
:101C2000DFADDFBFE0810D0ED55DE093D8B4E0837A
:101C3000E095E0A1E0B3E085E0A523EF0EF003EC32
:101C40000CF03AEF0DF0D55187EC0BF00001DA6F94
:101C5000100EDA5DD8B434EF0EF0D8B034EF0EF0D9
:101C6000020ED66F3AEF0DF0EC91CFEC0BF03AEF9D
:101C70000DF0020ED65DD8A43AEF0DF0D55187ECE9
:101C80000BF00001D96F100EDA5DD8B45CEF0EF0E6
:101C9000D8B05CEF0EF0DA39F00BDC6FD925E16FCC
:101CA000010ED66F01EE00F0D751E926E151EF6E3B
:101CB000D72BDB2B3AEF0DF0EC91CFEC0BF03AEF9A
:021CC0000DF025
:020000040030CA
:0E0000000032011E0008810003C003E003402F
:00000001FF
